{
  "_format": "hh-sol-artifact-1",
  "contractName": "ERC20Countdown",
  "sourceName": "contracts/ERC20/ERC20Countdown.sol",
  "abi": [
    {
      "inputs": [],
      "name": "AmountExceedsBalance",
      "type": "error"
    },
    {
      "inputs": [],
      "name": "InvalidAllowance",
      "type": "error"
    },
    {
      "inputs": [],
      "name": "InvalidCall",
      "type": "error"
    },
    {
      "anonymous": false,
      "inputs": [
        {
          "indexed": true,
          "internalType": "address",
          "name": "owner",
          "type": "address"
        },
        {
          "indexed": true,
          "internalType": "address",
          "name": "spender",
          "type": "address"
        },
        {
          "indexed": false,
          "internalType": "uint256",
          "name": "value",
          "type": "uint256"
        }
      ],
      "name": "Approval",
      "type": "event"
    },
    {
      "anonymous": false,
      "inputs": [
        {
          "indexed": true,
          "internalType": "address",
          "name": "from",
          "type": "address"
        },
        {
          "indexed": true,
          "internalType": "address",
          "name": "to",
          "type": "address"
        },
        {
          "indexed": false,
          "internalType": "uint256",
          "name": "value",
          "type": "uint256"
        }
      ],
      "name": "Transfer",
      "type": "event"
    },
    {
      "inputs": [
        {
          "internalType": "address",
          "name": "owner",
          "type": "address"
        },
        {
          "internalType": "address",
          "name": "spender",
          "type": "address"
        }
      ],
      "name": "allowance",
      "outputs": [
        {
          "internalType": "uint256",
          "name": "",
          "type": "uint256"
        }
      ],
      "stateMutability": "view",
      "type": "function"
    },
    {
      "inputs": [
        {
          "internalType": "address",
          "name": "spender",
          "type": "address"
        },
        {
          "internalType": "uint256",
          "name": "amount",
          "type": "uint256"
        }
      ],
      "name": "approve",
      "outputs": [
        {
          "internalType": "bool",
          "name": "",
          "type": "bool"
        }
      ],
      "stateMutability": "nonpayable",
      "type": "function"
    },
    {
      "inputs": [
        {
          "internalType": "address",
          "name": "account",
          "type": "address"
        }
      ],
      "name": "balanceOf",
      "outputs": [
        {
          "internalType": "uint256",
          "name": "",
          "type": "uint256"
        }
      ],
      "stateMutability": "view",
      "type": "function"
    },
    {
      "inputs": [
        {
          "internalType": "address",
          "name": "spender",
          "type": "address"
        },
        {
          "internalType": "uint256",
          "name": "subtractedValue",
          "type": "uint256"
        }
      ],
      "name": "decreaseAllowance",
      "outputs": [
        {
          "internalType": "bool",
          "name": "",
          "type": "bool"
        }
      ],
      "stateMutability": "nonpayable",
      "type": "function"
    },
    {
      "inputs": [
        {
          "internalType": "address",
          "name": "spender",
          "type": "address"
        },
        {
          "internalType": "uint256",
          "name": "addedValue",
          "type": "uint256"
        }
      ],
      "name": "increaseAllowance",
      "outputs": [
        {
          "internalType": "bool",
          "name": "",
          "type": "bool"
        }
      ],
      "stateMutability": "nonpayable",
      "type": "function"
    },
    {
      "inputs": [],
      "name": "timeNow",
      "outputs": [
        {
          "internalType": "uint256",
          "name": "",
          "type": "uint256"
        }
      ],
      "stateMutability": "view",
      "type": "function"
    },
    {
      "inputs": [
        {
          "internalType": "address",
          "name": "account",
          "type": "address"
        }
      ],
      "name": "timeOf",
      "outputs": [
        {
          "internalType": "int256",
          "name": "",
          "type": "int256"
        }
      ],
      "stateMutability": "view",
      "type": "function"
    },
    {
      "inputs": [],
      "name": "totalSupply",
      "outputs": [
        {
          "internalType": "uint256",
          "name": "",
          "type": "uint256"
        }
      ],
      "stateMutability": "view",
      "type": "function"
    },
    {
      "inputs": [
        {
          "internalType": "address",
          "name": "to",
          "type": "address"
        },
        {
          "internalType": "uint256",
          "name": "amount",
          "type": "uint256"
        }
      ],
      "name": "transfer",
      "outputs": [
        {
          "internalType": "bool",
          "name": "",
          "type": "bool"
        }
      ],
      "stateMutability": "nonpayable",
      "type": "function"
    },
    {
      "inputs": [
        {
          "internalType": "address",
          "name": "from",
          "type": "address"
        },
        {
          "internalType": "address",
          "name": "to",
          "type": "address"
        },
        {
          "internalType": "uint256",
          "name": "amount",
          "type": "uint256"
        }
      ],
      "name": "transferFrom",
      "outputs": [
        {
          "internalType": "bool",
          "name": "",
          "type": "bool"
        }
      ],
      "stateMutability": "nonpayable",
      "type": "function"
    }
  ],
  "bytecode": "0x608060405234801561001057600080fd5b506107af806100206000396000f3fe608060405234801561001057600080fd5b506004361061009e5760003560e01c8063a457c2d711610066578063a457c2d71461011a578063a9059cbb1461012d578063d0b4850914610140578063d95660be14610153578063dd62ed3e1461015b57600080fd5b8063095ea7b3146100a357806318160ddd146100cb57806323b872dd146100e157806339509351146100f457806370a0823114610107575b600080fd5b6100b66100b13660046105dd565b61016e565b60405190151581526020015b60405180910390f35b6100d3610186565b6040519081526020016100c2565b6100b66100ef366004610607565b6101c2565b6100b66101023660046105dd565b6101e6565b6100d3610115366004610643565b610208565b6100b66101283660046105dd565b610260565b6100b661013b3660046105dd565b61029e565b6100d361014e366004610643565b6102ac565b6100d3610302565b6100d361016936600461065e565b610315565b60003361017c81858561033e565b5060019392505050565b600080600254610194610302565b61019e91906106a7565b60045460035491925090038181116101b75760006101bb565b8181035b9250505090565b6000336101d08582856103d9565b6101db858585610424565b506001949350505050565b60003361017c8185856101f98383610315565b61020391906106c6565b61033e565b600080610213610302565b6001600160a01b038416600090815260016020526040902054909150811061023c576000610259565b6001600160a01b0383166000908152600160205260409020548190035b9392505050565b6000338161026e8286610315565b905083811015610291576040516365ba6fc360e01b815260040160405180910390fd5b6101db828686840361033e565b60003361017c818585610424565b6001600160a01b0381166000908152600160205260408120546102d157506000919050565b6102d9610302565b6001600160a01b0383166000908152600160205260409020546102fc91906106de565b92915050565b60006103106103e8426106a7565b905090565b6001600160a01b0391821660009081526020818152604080832093909416825291909152205490565b6001600160a01b038316158061035b57506001600160a01b038216155b15610379576040516365ba6fc360e01b815260040160405180910390fd5b6001600160a01b038381166000818152602081815260408083209487168084529482529182902085905590518481527f8c5be1e5ebec7d5bd14f71427d1e84f3dd0314c0f7b2291e5b200ac8c7c3b92591015b60405180910390a3505050565b60006103e58484610315565b9050600019811461041e5781811015610411576040516365ba6fc360e01b815260040160405180910390fd5b61041e848484840361033e565b50505050565b6001600160a01b038316158061044157506001600160a01b038216155b1561045f5760405163574b16a760e11b815260040160405180910390fd5b60008161046b846102ac565b610475919061071d565b136104935760405163574b16a760e11b815260040160405180910390fd5b8061049d84610208565b10156104bc576040516312d5633960e31b815260040160405180910390fd5b6001600160a01b03821660009081526001602052604090205461053d5760006104e3610302565b90506104ef82826106c6565b6001600160a01b0384166000908152600160205260408120919091556003805483929061051d9084906106c6565b9091555050600280549060006105328361075e565b91905055505061056b565b6001600160a01b038216600090815260016020526040812080548392906105659084906106c6565b90915550505b6001600160a01b03808416600081815260016020526040908190208054859003905551918416917fddf252ad1be2c89b69c2b068fc378daa952ba7f163c4a11628f55a4df523b3ef906103cc9085815260200190565b80356001600160a01b03811681146105d857600080fd5b919050565b600080604083850312156105f057600080fd5b6105f9836105c1565b946020939093013593505050565b60008060006060848603121561061c57600080fd5b610625846105c1565b9250610633602085016105c1565b9150604084013590509250925092565b60006020828403121561065557600080fd5b610259826105c1565b6000806040838503121561067157600080fd5b61067a836105c1565b9150610688602084016105c1565b90509250929050565b634e487b7160e01b600052601160045260246000fd5b60008160001904831182151516156106c1576106c1610691565b500290565b600082198211156106d9576106d9610691565b500190565b60008083128015600160ff1b8501841216156106fc576106fc610691565b6001600160ff1b038401831381161561071757610717610691565b50500390565b600080821280156001600160ff1b038490038513161561073f5761073f610691565b600160ff1b839003841281161561075857610758610691565b50500190565b600060001982141561077257610772610691565b506001019056fea2646970667358221220b26332f4ba3d8ebab3173ab64bca081fb5400d62fb18331277480b98e4b8eeec64736f6c63430008090033",
  "linkReferences": {},
  "deployedLinkReferences": {}
}