{
  "_format": "hh-sol-artifact-1",
  "contractName": "TimeBank",
  "sourceName": "contracts/TimeBank.sol",
  "abi": [
    {
      "inputs": [
        {
          "internalType": "contract IERC20Adjustable",
          "name": "time",
          "type": "address"
        }
      ],
      "stateMutability": "nonpayable",
      "type": "constructor"
    },
    {
      "inputs": [],
      "name": "InvalidAmount",
      "type": "error"
    },
    {
      "inputs": [],
      "name": "InvalidCall",
      "type": "error"
    },
    {
      "inputs": [],
      "name": "InvalidTransfer",
      "type": "error"
    },
    {
      "anonymous": false,
      "inputs": [
        {
          "indexed": true,
          "internalType": "address",
          "name": "owner",
          "type": "address"
        },
        {
          "indexed": true,
          "internalType": "address",
          "name": "spender",
          "type": "address"
        },
        {
          "indexed": false,
          "internalType": "uint256",
          "name": "value",
          "type": "uint256"
        }
      ],
      "name": "Approval",
      "type": "event"
    },
    {
      "anonymous": false,
      "inputs": [
        {
          "indexed": true,
          "internalType": "address",
          "name": "from",
          "type": "address"
        },
        {
          "indexed": true,
          "internalType": "address",
          "name": "to",
          "type": "address"
        },
        {
          "indexed": false,
          "internalType": "uint256",
          "name": "value",
          "type": "uint256"
        }
      ],
      "name": "Transfer",
      "type": "event"
    },
    {
      "inputs": [],
      "name": "TIME",
      "outputs": [
        {
          "internalType": "contract IERC20Adjustable",
          "name": "",
          "type": "address"
        }
      ],
      "stateMutability": "view",
      "type": "function"
    },
    {
      "inputs": [
        {
          "internalType": "address",
          "name": "owner",
          "type": "address"
        },
        {
          "internalType": "address",
          "name": "spender",
          "type": "address"
        }
      ],
      "name": "allowance",
      "outputs": [
        {
          "internalType": "uint256",
          "name": "",
          "type": "uint256"
        }
      ],
      "stateMutability": "view",
      "type": "function"
    },
    {
      "inputs": [
        {
          "internalType": "address",
          "name": "spender",
          "type": "address"
        },
        {
          "internalType": "uint256",
          "name": "amount",
          "type": "uint256"
        }
      ],
      "name": "approve",
      "outputs": [
        {
          "internalType": "bool",
          "name": "",
          "type": "bool"
        }
      ],
      "stateMutability": "nonpayable",
      "type": "function"
    },
    {
      "inputs": [
        {
          "internalType": "address",
          "name": "account",
          "type": "address"
        }
      ],
      "name": "balanceOf",
      "outputs": [
        {
          "internalType": "uint256",
          "name": "",
          "type": "uint256"
        }
      ],
      "stateMutability": "view",
      "type": "function"
    },
    {
      "inputs": [],
      "name": "decimals",
      "outputs": [
        {
          "internalType": "uint8",
          "name": "",
          "type": "uint8"
        }
      ],
      "stateMutability": "pure",
      "type": "function"
    },
    {
      "inputs": [
        {
          "internalType": "address",
          "name": "spender",
          "type": "address"
        },
        {
          "internalType": "uint256",
          "name": "subtractedValue",
          "type": "uint256"
        }
      ],
      "name": "decreaseAllowance",
      "outputs": [
        {
          "internalType": "bool",
          "name": "",
          "type": "bool"
        }
      ],
      "stateMutability": "nonpayable",
      "type": "function"
    },
    {
      "inputs": [
        {
          "internalType": "address",
          "name": "account",
          "type": "address"
        },
        {
          "internalType": "uint256",
          "name": "amount",
          "type": "uint256"
        }
      ],
      "name": "deposit",
      "outputs": [],
      "stateMutability": "nonpayable",
      "type": "function"
    },
    {
      "inputs": [
        {
          "internalType": "uint256",
          "name": "amount",
          "type": "uint256"
        }
      ],
      "name": "deposit",
      "outputs": [],
      "stateMutability": "nonpayable",
      "type": "function"
    },
    {
      "inputs": [
        {
          "internalType": "address",
          "name": "spender",
          "type": "address"
        },
        {
          "internalType": "uint256",
          "name": "addedValue",
          "type": "uint256"
        }
      ],
      "name": "increaseAllowance",
      "outputs": [
        {
          "internalType": "bool",
          "name": "",
          "type": "bool"
        }
      ],
      "stateMutability": "nonpayable",
      "type": "function"
    },
    {
      "inputs": [],
      "name": "name",
      "outputs": [
        {
          "internalType": "string",
          "name": "",
          "type": "string"
        }
      ],
      "stateMutability": "view",
      "type": "function"
    },
    {
      "inputs": [],
      "name": "symbol",
      "outputs": [
        {
          "internalType": "string",
          "name": "",
          "type": "string"
        }
      ],
      "stateMutability": "view",
      "type": "function"
    },
    {
      "inputs": [],
      "name": "totalSupply",
      "outputs": [
        {
          "internalType": "uint256",
          "name": "",
          "type": "uint256"
        }
      ],
      "stateMutability": "view",
      "type": "function"
    },
    {
      "inputs": [
        {
          "internalType": "address",
          "name": "to",
          "type": "address"
        },
        {
          "internalType": "uint256",
          "name": "amount",
          "type": "uint256"
        }
      ],
      "name": "transfer",
      "outputs": [
        {
          "internalType": "bool",
          "name": "",
          "type": "bool"
        }
      ],
      "stateMutability": "nonpayable",
      "type": "function"
    },
    {
      "inputs": [
        {
          "internalType": "address",
          "name": "from",
          "type": "address"
        },
        {
          "internalType": "address",
          "name": "to",
          "type": "address"
        },
        {
          "internalType": "uint256",
          "name": "amount",
          "type": "uint256"
        }
      ],
      "name": "transferFrom",
      "outputs": [
        {
          "internalType": "bool",
          "name": "",
          "type": "bool"
        }
      ],
      "stateMutability": "nonpayable",
      "type": "function"
    },
    {
      "inputs": [
        {
          "internalType": "uint256",
          "name": "amount",
          "type": "uint256"
        }
      ],
      "name": "withdraw",
      "outputs": [],
      "stateMutability": "nonpayable",
      "type": "function"
    },
    {
      "inputs": [
        {
          "internalType": "address",
          "name": "recipient",
          "type": "address"
        },
        {
          "internalType": "uint256",
          "name": "amount",
          "type": "uint256"
        }
      ],
      "name": "withdraw",
      "outputs": [],
      "stateMutability": "nonpayable",
      "type": "function"
    }
  ],
  "bytecode": "0x60a06040523480156200001157600080fd5b5060405162000f6a38038062000f6a83398101604081905262000034916200015b565b6040518060400160405280600981526020016854696d652042616e6b60b81b8152506040518060400160405280600381526020016253454360e81b81525081600390805190602001906200008a929190620000b5565b508051620000a0906004906020840190620000b5565b5050506001600160a01b0316608052620001ca565b828054620000c3906200018d565b90600052602060002090601f016020900481019282620000e7576000855562000132565b82601f106200010257805160ff191683800117855562000132565b8280016001018555821562000132579182015b828111156200013257825182559160200191906001019062000115565b506200014092915062000144565b5090565b5b8082111562000140576000815560010162000145565b6000602082840312156200016e57600080fd5b81516001600160a01b03811681146200018657600080fd5b9392505050565b600181811c90821680620001a257607f821691505b60208210811415620001c457634e487b7160e01b600052602260045260246000fd5b50919050565b608051610d76620001f4600039600081816102240152818161038b01526105220152610d766000f3fe608060405234801561001057600080fd5b50600436106101005760003560e01c806370a0823111610097578063b6b55f2511610066578063b6b55f251461020c578063beae66371461021f578063dd62ed3e1461025e578063f3fef3a31461027157600080fd5b806370a08231146101b557806395d89b41146101de578063a457c2d7146101e6578063a9059cbb146101f957600080fd5b80632e1a7d4d116100d35780632e1a7d4d1461016b578063313ce56714610180578063395093511461018f57806347e7ef24146101a257600080fd5b806306fdde0314610105578063095ea7b31461012357806318160ddd1461014657806323b872dd14610158575b600080fd5b61010d610284565b60405161011a9190610b7b565b60405180910390f35b610136610131366004610bec565b610316565b604051901515815260200161011a565b6002545b60405190815260200161011a565b610136610166366004610c16565b61032e565b61017e610179366004610c52565b610352565b005b6040516003815260200161011a565b61013661019d366004610bec565b61035f565b61017e6101b0366004610bec565b610381565b61014a6101c3366004610c6b565b6001600160a01b031660009081526020819052604090205490565b61010d61041f565b6101366101f4366004610bec565b61042e565b610136610207366004610bec565b6104ae565b61017e61021a366004610c52565b6104bc565b6102467f000000000000000000000000000000000000000000000000000000000000000081565b6040516001600160a01b03909116815260200161011a565b61014a61026c366004610c8d565b6104c6565b61017e61027f366004610bec565b6104f1565b60606003805461029390610cc0565b80601f01602080910402602001604051908101604052809291908181526020018280546102bf90610cc0565b801561030c5780601f106102e15761010080835404028352916020019161030c565b820191906000526020600020905b8154815290600101906020018083116102ef57829003601f168201915b5050505050905090565b600033610324818585610583565b5060019392505050565b60003361033c8582856106a8565b610347858585610722565b506001949350505050565b61035c33826104f1565b50565b60003361032481858561037283836104c6565b61037c9190610d11565b610583565b6001600160a01b037f0000000000000000000000000000000000000000000000000000000000000000166379cc6790336040516001600160e01b031960e084901b1681526001600160a01b03909116600482015260248101849052604401600060405180830381600087803b1580156103f957600080fd5b505af115801561040d573d6000803e3d6000fd5b5050505061041b82826108fb565b5050565b60606004805461029390610cc0565b6000338161043c82866104c6565b9050838110156104a15760405162461bcd60e51b815260206004820152602560248201527f45524332303a2064656372656173656420616c6c6f77616e63652062656c6f77604482015264207a65726f60d81b60648201526084015b60405180910390fd5b6103478286868403610583565b600033610324818585610722565b61035c3382610381565b6001600160a01b03918216600090815260016020908152604080832093909416825291909152205490565b336104fc81836109e6565b6040516340c10f1960e01b81526001600160a01b038481166004830152602482018490527f000000000000000000000000000000000000000000000000000000000000000016906340c10f1990604401600060405180830381600087803b15801561056657600080fd5b505af115801561057a573d6000803e3d6000fd5b50505050505050565b6001600160a01b0383166105e55760405162461bcd60e51b8152602060048201526024808201527f45524332303a20617070726f76652066726f6d20746865207a65726f206164646044820152637265737360e01b6064820152608401610498565b6001600160a01b0382166106465760405162461bcd60e51b815260206004820152602260248201527f45524332303a20617070726f766520746f20746865207a65726f206164647265604482015261737360f01b6064820152608401610498565b6001600160a01b0383811660008181526001602090815260408083209487168084529482529182902085905590518481527f8c5be1e5ebec7d5bd14f71427d1e84f3dd0314c0f7b2291e5b200ac8c7c3b92591015b60405180910390a3505050565b60006106b484846104c6565b9050600019811461071c578181101561070f5760405162461bcd60e51b815260206004820152601d60248201527f45524332303a20696e73756666696369656e7420616c6c6f77616e63650000006044820152606401610498565b61071c8484848403610583565b50505050565b6001600160a01b0383166107865760405162461bcd60e51b815260206004820152602560248201527f45524332303a207472616e736665722066726f6d20746865207a65726f206164604482015264647265737360d81b6064820152608401610498565b6001600160a01b0382166107e85760405162461bcd60e51b815260206004820152602360248201527f45524332303a207472616e7366657220746f20746865207a65726f206164647260448201526265737360e81b6064820152608401610498565b6107f3838383610b3d565b6001600160a01b0383166000908152602081905260409020548181101561086b5760405162461bcd60e51b815260206004820152602660248201527f45524332303a207472616e7366657220616d6f756e7420657863656564732062604482015265616c616e636560d01b6064820152608401610498565b6001600160a01b038085166000908152602081905260408082208585039055918516815290812080548492906108a2908490610d11565b92505081905550826001600160a01b0316846001600160a01b03167fddf252ad1be2c89b69c2b068fc378daa952ba7f163c4a11628f55a4df523b3ef846040516108ee91815260200190565b60405180910390a361071c565b6001600160a01b0382166109515760405162461bcd60e51b815260206004820152601f60248201527f45524332303a206d696e7420746f20746865207a65726f2061646472657373006044820152606401610498565b61095d60008383610b3d565b806002600082825461096f9190610d11565b90915550506001600160a01b0382166000908152602081905260408120805483929061099c908490610d11565b90915550506040518181526001600160a01b038316906000907fddf252ad1be2c89b69c2b068fc378daa952ba7f163c4a11628f55a4df523b3ef9060200160405180910390a35050565b6001600160a01b038216610a465760405162461bcd60e51b815260206004820152602160248201527f45524332303a206275726e2066726f6d20746865207a65726f206164647265736044820152607360f81b6064820152608401610498565b610a5282600083610b3d565b6001600160a01b03821660009081526020819052604090205481811015610ac65760405162461bcd60e51b815260206004820152602260248201527f45524332303a206275726e20616d6f756e7420657863656564732062616c616e604482015261636560f01b6064820152608401610498565b6001600160a01b0383166000908152602081905260408120838303905560028054849290610af5908490610d29565b90915550506040518281526000906001600160a01b038516907fddf252ad1be2c89b69c2b068fc378daa952ba7f163c4a11628f55a4df523b3ef9060200161069b565b505050565b6001600160a01b03831615801590610b5d57506001600160a01b03821615155b15610b3857604051632f35253160e01b815260040160405180910390fd5b600060208083528351808285015260005b81811015610ba857858101830151858201604001528201610b8c565b81811115610bba576000604083870101525b50601f01601f1916929092016040019392505050565b80356001600160a01b0381168114610be757600080fd5b919050565b60008060408385031215610bff57600080fd5b610c0883610bd0565b946020939093013593505050565b600080600060608486031215610c2b57600080fd5b610c3484610bd0565b9250610c4260208501610bd0565b9150604084013590509250925092565b600060208284031215610c6457600080fd5b5035919050565b600060208284031215610c7d57600080fd5b610c8682610bd0565b9392505050565b60008060408385031215610ca057600080fd5b610ca983610bd0565b9150610cb760208401610bd0565b90509250929050565b600181811c90821680610cd457607f821691505b60208210811415610cf557634e487b7160e01b600052602260045260246000fd5b50919050565b634e487b7160e01b600052601160045260246000fd5b60008219821115610d2457610d24610cfb565b500190565b600082821015610d3b57610d3b610cfb565b50039056fea2646970667358221220a732b45203ee2d4bab50b3cac9854d6f1519335c0c4a1830c3273d6e2ebc5d5f64736f6c63430008090033",
  "linkReferences": {},
  "deployedLinkReferences": {}
}