{
  "_format": "hh-sol-artifact-1",
  "contractName": "InTime",
  "sourceName": "contracts/InTime.sol",
  "abi": [
    {
      "inputs": [
        {
          "internalType": "address",
          "name": "admin",
          "type": "address"
        }
      ],
      "stateMutability": "nonpayable",
      "type": "constructor"
    },
    {
      "inputs": [],
      "name": "AmountExceedsBalance",
      "type": "error"
    },
    {
      "inputs": [],
      "name": "InvalidAllowance",
      "type": "error"
    },
    {
      "inputs": [],
      "name": "InvalidCall",
      "type": "error"
    },
    {
      "anonymous": false,
      "inputs": [
        {
          "indexed": true,
          "internalType": "address",
          "name": "owner",
          "type": "address"
        },
        {
          "indexed": true,
          "internalType": "address",
          "name": "spender",
          "type": "address"
        },
        {
          "indexed": false,
          "internalType": "uint256",
          "name": "value",
          "type": "uint256"
        }
      ],
      "name": "Approval",
      "type": "event"
    },
    {
      "anonymous": false,
      "inputs": [
        {
          "indexed": true,
          "internalType": "bytes32",
          "name": "role",
          "type": "bytes32"
        },
        {
          "indexed": true,
          "internalType": "bytes32",
          "name": "previousAdminRole",
          "type": "bytes32"
        },
        {
          "indexed": true,
          "internalType": "bytes32",
          "name": "newAdminRole",
          "type": "bytes32"
        }
      ],
      "name": "RoleAdminChanged",
      "type": "event"
    },
    {
      "anonymous": false,
      "inputs": [
        {
          "indexed": true,
          "internalType": "bytes32",
          "name": "role",
          "type": "bytes32"
        },
        {
          "indexed": true,
          "internalType": "address",
          "name": "account",
          "type": "address"
        },
        {
          "indexed": true,
          "internalType": "address",
          "name": "sender",
          "type": "address"
        }
      ],
      "name": "RoleGranted",
      "type": "event"
    },
    {
      "anonymous": false,
      "inputs": [
        {
          "indexed": true,
          "internalType": "bytes32",
          "name": "role",
          "type": "bytes32"
        },
        {
          "indexed": true,
          "internalType": "address",
          "name": "account",
          "type": "address"
        },
        {
          "indexed": true,
          "internalType": "address",
          "name": "sender",
          "type": "address"
        }
      ],
      "name": "RoleRevoked",
      "type": "event"
    },
    {
      "anonymous": false,
      "inputs": [
        {
          "indexed": true,
          "internalType": "address",
          "name": "from",
          "type": "address"
        },
        {
          "indexed": true,
          "internalType": "address",
          "name": "to",
          "type": "address"
        },
        {
          "indexed": false,
          "internalType": "uint256",
          "name": "value",
          "type": "uint256"
        }
      ],
      "name": "Transfer",
      "type": "event"
    },
    {
      "inputs": [],
      "name": "DEFAULT_ADMIN_ROLE",
      "outputs": [
        {
          "internalType": "bytes32",
          "name": "",
          "type": "bytes32"
        }
      ],
      "stateMutability": "view",
      "type": "function"
    },
    {
      "inputs": [
        {
          "internalType": "address",
          "name": "owner",
          "type": "address"
        },
        {
          "internalType": "address",
          "name": "spender",
          "type": "address"
        }
      ],
      "name": "allowance",
      "outputs": [
        {
          "internalType": "uint256",
          "name": "",
          "type": "uint256"
        }
      ],
      "stateMutability": "view",
      "type": "function"
    },
    {
      "inputs": [
        {
          "internalType": "address",
          "name": "spender",
          "type": "address"
        },
        {
          "internalType": "uint256",
          "name": "amount",
          "type": "uint256"
        }
      ],
      "name": "approve",
      "outputs": [
        {
          "internalType": "bool",
          "name": "",
          "type": "bool"
        }
      ],
      "stateMutability": "nonpayable",
      "type": "function"
    },
    {
      "inputs": [
        {
          "internalType": "address",
          "name": "account",
          "type": "address"
        }
      ],
      "name": "balanceOf",
      "outputs": [
        {
          "internalType": "uint256",
          "name": "",
          "type": "uint256"
        }
      ],
      "stateMutability": "view",
      "type": "function"
    },
    {
      "inputs": [
        {
          "internalType": "uint256",
          "name": "amount",
          "type": "uint256"
        }
      ],
      "name": "burn",
      "outputs": [],
      "stateMutability": "nonpayable",
      "type": "function"
    },
    {
      "inputs": [
        {
          "internalType": "address",
          "name": "account",
          "type": "address"
        },
        {
          "internalType": "uint256",
          "name": "amount",
          "type": "uint256"
        }
      ],
      "name": "burnFrom",
      "outputs": [],
      "stateMutability": "nonpayable",
      "type": "function"
    },
    {
      "inputs": [],
      "name": "decimals",
      "outputs": [
        {
          "internalType": "uint8",
          "name": "",
          "type": "uint8"
        }
      ],
      "stateMutability": "pure",
      "type": "function"
    },
    {
      "inputs": [
        {
          "internalType": "address",
          "name": "spender",
          "type": "address"
        },
        {
          "internalType": "uint256",
          "name": "subtractedValue",
          "type": "uint256"
        }
      ],
      "name": "decreaseAllowance",
      "outputs": [
        {
          "internalType": "bool",
          "name": "",
          "type": "bool"
        }
      ],
      "stateMutability": "nonpayable",
      "type": "function"
    },
    {
      "inputs": [
        {
          "internalType": "bytes32",
          "name": "role",
          "type": "bytes32"
        }
      ],
      "name": "getRoleAdmin",
      "outputs": [
        {
          "internalType": "bytes32",
          "name": "",
          "type": "bytes32"
        }
      ],
      "stateMutability": "view",
      "type": "function"
    },
    {
      "inputs": [
        {
          "internalType": "bytes32",
          "name": "role",
          "type": "bytes32"
        },
        {
          "internalType": "address",
          "name": "account",
          "type": "address"
        }
      ],
      "name": "grantRole",
      "outputs": [],
      "stateMutability": "nonpayable",
      "type": "function"
    },
    {
      "inputs": [
        {
          "internalType": "bytes32",
          "name": "role",
          "type": "bytes32"
        },
        {
          "internalType": "address",
          "name": "account",
          "type": "address"
        }
      ],
      "name": "hasRole",
      "outputs": [
        {
          "internalType": "bool",
          "name": "",
          "type": "bool"
        }
      ],
      "stateMutability": "view",
      "type": "function"
    },
    {
      "inputs": [
        {
          "internalType": "address",
          "name": "spender",
          "type": "address"
        },
        {
          "internalType": "uint256",
          "name": "addedValue",
          "type": "uint256"
        }
      ],
      "name": "increaseAllowance",
      "outputs": [
        {
          "internalType": "bool",
          "name": "",
          "type": "bool"
        }
      ],
      "stateMutability": "nonpayable",
      "type": "function"
    },
    {
      "inputs": [
        {
          "internalType": "address",
          "name": "to",
          "type": "address"
        },
        {
          "internalType": "uint256",
          "name": "amount",
          "type": "uint256"
        }
      ],
      "name": "mint",
      "outputs": [],
      "stateMutability": "nonpayable",
      "type": "function"
    },
    {
      "inputs": [],
      "name": "name",
      "outputs": [
        {
          "internalType": "string",
          "name": "",
          "type": "string"
        }
      ],
      "stateMutability": "pure",
      "type": "function"
    },
    {
      "inputs": [
        {
          "internalType": "bytes32",
          "name": "role",
          "type": "bytes32"
        },
        {
          "internalType": "address",
          "name": "account",
          "type": "address"
        }
      ],
      "name": "renounceRole",
      "outputs": [],
      "stateMutability": "nonpayable",
      "type": "function"
    },
    {
      "inputs": [
        {
          "internalType": "bytes32",
          "name": "role",
          "type": "bytes32"
        },
        {
          "internalType": "address",
          "name": "account",
          "type": "address"
        }
      ],
      "name": "revokeRole",
      "outputs": [],
      "stateMutability": "nonpayable",
      "type": "function"
    },
    {
      "inputs": [
        {
          "internalType": "bytes4",
          "name": "interfaceId",
          "type": "bytes4"
        }
      ],
      "name": "supportsInterface",
      "outputs": [
        {
          "internalType": "bool",
          "name": "",
          "type": "bool"
        }
      ],
      "stateMutability": "view",
      "type": "function"
    },
    {
      "inputs": [],
      "name": "symbol",
      "outputs": [
        {
          "internalType": "string",
          "name": "",
          "type": "string"
        }
      ],
      "stateMutability": "pure",
      "type": "function"
    },
    {
      "inputs": [],
      "name": "timeNow",
      "outputs": [
        {
          "internalType": "uint256",
          "name": "",
          "type": "uint256"
        }
      ],
      "stateMutability": "view",
      "type": "function"
    },
    {
      "inputs": [
        {
          "internalType": "address",
          "name": "account",
          "type": "address"
        }
      ],
      "name": "timeOf",
      "outputs": [
        {
          "internalType": "int256",
          "name": "",
          "type": "int256"
        }
      ],
      "stateMutability": "view",
      "type": "function"
    },
    {
      "inputs": [],
      "name": "totalSupply",
      "outputs": [
        {
          "internalType": "uint256",
          "name": "",
          "type": "uint256"
        }
      ],
      "stateMutability": "view",
      "type": "function"
    },
    {
      "inputs": [
        {
          "internalType": "address",
          "name": "to",
          "type": "address"
        },
        {
          "internalType": "uint256",
          "name": "amount",
          "type": "uint256"
        }
      ],
      "name": "transfer",
      "outputs": [
        {
          "internalType": "bool",
          "name": "",
          "type": "bool"
        }
      ],
      "stateMutability": "nonpayable",
      "type": "function"
    },
    {
      "inputs": [
        {
          "internalType": "address",
          "name": "from",
          "type": "address"
        },
        {
          "internalType": "address",
          "name": "to",
          "type": "address"
        },
        {
          "internalType": "uint256",
          "name": "amount",
          "type": "uint256"
        }
      ],
      "name": "transferFrom",
      "outputs": [
        {
          "internalType": "bool",
          "name": "",
          "type": "bool"
        }
      ],
      "stateMutability": "nonpayable",
      "type": "function"
    }
  ],
  "bytecode": "0x608060405234801561001057600080fd5b506040516112e93803806112e983398101604081905261002f916100ec565b61003a600082610040565b5061011c565b61004a828261004e565b5050565b6000828152602081815260408083206001600160a01b038516845290915290205460ff1661004a576000828152602081815260408083206001600160a01b03851684529091529020805460ff191660011790556100a83390565b6001600160a01b0316816001600160a01b0316837f2f8788117e7eff1d82e926ec794901d17c78024a50270940304540a733656f0d60405160405180910390a45050565b6000602082840312156100fe57600080fd5b81516001600160a01b038116811461011557600080fd5b9392505050565b6111be8061012b6000396000f3fe608060405234801561001057600080fd5b506004361061014d5760003560e01c806342966c68116100c3578063a457c2d71161007c578063a457c2d7146102d5578063a9059cbb146102e8578063d0b48509146102fb578063d547741f1461030e578063d95660be14610321578063dd62ed3e1461032957600080fd5b806342966c681461026257806370a082311461027557806379cc67901461028857806391d148541461029b57806395d89b41146102ae578063a217fddf146102cd57600080fd5b8063248a9ca311610115578063248a9ca3146101e25780632f2ff15d14610205578063313ce5671461021a57806336568abe14610229578063395093511461023c57806340c10f191461024f57600080fd5b806301ffc9a71461015257806306fdde031461017a578063095ea7b3146101a657806318160ddd146101b957806323b872dd146101cf575b600080fd5b610165610160366004610e53565b61033c565b60405190151581526020015b60405180910390f35b604080518082019091526007815266496e2054696d6560c81b60208201525b6040516101719190610ea9565b6101656101b4366004610ef8565b610373565b6101c161038b565b604051908152602001610171565b6101656101dd366004610f22565b6103c7565b6101c16101f0366004610f5e565b60009081526020819052604090206001015490565b610218610213366004610f77565b6103eb565b005b60405160038152602001610171565b610218610237366004610f77565b610415565b61016561024a366004610ef8565b610498565b61021861025d366004610ef8565b6104ba565b610218610270366004610f5e565b6104ee565b6101c1610283366004610fa3565b6104fb565b610218610296366004610ef8565b610553565b6101656102a9366004610f77565b610568565b60408051808201909152600381526253454360e81b6020820152610199565b6101c1600081565b6101656102e3366004610ef8565b610591565b6101656102f6366004610ef8565b6105cf565b6101c1610309366004610fa3565b6105dd565b61021861031c366004610f77565b61062d565b6101c1610652565b6101c1610337366004610fbe565b610665565b60006001600160e01b03198216637965db0b60e01b148061036d57506301ffc9a760e01b6001600160e01b03198316145b92915050565b600033610381818585610690565b5060019392505050565b600080600354610399610652565b6103a39190610ffe565b60055460045491925090038181116103bc5760006103c0565b8181035b9250505090565b6000336103d585828561072d565b6103e0858585610778565b506001949350505050565b60008281526020819052604090206001015461040681610915565b610410838361091f565b505050565b6001600160a01b038116331461048a5760405162461bcd60e51b815260206004820152602f60248201527f416363657373436f6e74726f6c3a2063616e206f6e6c792072656e6f756e636560448201526e103937b632b9903337b91039b2b63360891b60648201526084015b60405180910390fd5b61049482826109a3565b5050565b6000336103818185856104ab8383610665565b6104b5919061101d565b610690565b7f9f2df0fed2c77648de5860a4cc508cd0818c85b8b8a1ab4ceeef8d981c8956a66104e481610915565b6104108383610a08565b6104f83382610b8f565b50565b600080610506610652565b6001600160a01b038416600090815260026020526040902054909150811061052f57600061054c565b6001600160a01b0383166000908152600260205260409020548190035b9392505050565b61055e82338361072d565b6104948282610b8f565b6000918252602082815260408084206001600160a01b0393909316845291905290205460ff1690565b6000338161059f8286610665565b9050838110156105c2576040516365ba6fc360e01b815260040160405180910390fd5b6103e08286868403610690565b600033610381818585610778565b6001600160a01b03811660009081526002602052604081205461060257506000919050565b61060a610652565b6001600160a01b03831660009081526002602052604090205461036d9190611035565b60008281526020819052604090206001015461064881610915565b61041083836109a3565b60006106606103e842610ffe565b905090565b6001600160a01b03918216600090815260016020908152604080832093909416825291909152205490565b6001600160a01b03831615806106ad57506001600160a01b038216155b156106cb576040516365ba6fc360e01b815260040160405180910390fd5b6001600160a01b0383811660008181526001602090815260408083209487168084529482529182902085905590518481527f8c5be1e5ebec7d5bd14f71427d1e84f3dd0314c0f7b2291e5b200ac8c7c3b92591015b60405180910390a3505050565b60006107398484610665565b905060001981146107725781811015610765576040516365ba6fc360e01b815260040160405180910390fd5b6107728484848403610690565b50505050565b6001600160a01b038316158061079557506001600160a01b038216155b156107b35760405163574b16a760e11b815260040160405180910390fd5b6000816107bf846105dd565b6107c99190611074565b136107e75760405163574b16a760e11b815260040160405180910390fd5b806107f1846104fb565b1015610810576040516312d5633960e31b815260040160405180910390fd5b6001600160a01b038216600090815260026020526040902054610891576000610837610652565b9050610843828261101d565b6001600160a01b0384166000908152600260205260408120919091556004805483929061087190849061101d565b909155505060038054906000610886836110b5565b9190505550506108bf565b6001600160a01b038216600090815260026020526040812080548392906108b990849061101d565b90915550505b6001600160a01b03808416600081815260026020526040908190208054859003905551918416917fddf252ad1be2c89b69c2b068fc378daa952ba7f163c4a11628f55a4df523b3ef906107209085815260200190565b6104f88133610c53565b6109298282610568565b610494576000828152602081815260408083206001600160a01b03851684529091529020805460ff1916600117905561095f3390565b6001600160a01b0316816001600160a01b0316837f2f8788117e7eff1d82e926ec794901d17c78024a50270940304540a733656f0d60405160405180910390a45050565b6109ad8282610568565b15610494576000828152602081815260408083206001600160a01b0385168085529252808320805460ff1916905551339285917ff6391f5c32d9c69d2a47ea670b442974b53935d1edc7fd64eb21e047a839171b9190a45050565b6001600160a01b038216610a2f5760405163574b16a760e11b815260040160405180910390fd5b600081610a3b846105dd565b610a459190611074565b13610a635760405163574b16a760e11b815260040160405180910390fd5b6001600160a01b038216600090815260026020526040902054610b0257610a8861038b565b610a985760045460055560006003555b6000610aa2610652565b9050610aae828261101d565b6001600160a01b038416600090815260026020526040902055610ad1828261101d565b60046000828254610ae2919061101d565b909155505060038054906000610af7836110b5565b919050555050610b49565b6001600160a01b03821660009081526002602052604081208054839290610b2a90849061101d565b925050819055508060046000828254610b43919061101d565b90915550505b6040518181526001600160a01b038316906000907fddf252ad1be2c89b69c2b068fc378daa952ba7f163c4a11628f55a4df523b3ef906020015b60405180910390a35050565b6001600160a01b038216610bb65760405163574b16a760e11b815260040160405180910390fd5b80610bc0836104fb565b1015610bdf576040516312d5633960e31b815260040160405180910390fd5b6001600160a01b03821660009081526002602052604081208054839003905560058054839290610c1090849061101d565b90915550506040518181526000906001600160a01b038416907fddf252ad1be2c89b69c2b068fc378daa952ba7f163c4a11628f55a4df523b3ef90602001610b83565b610c5d8282610568565b61049457610c75816001600160a01b03166014610cb7565b610c80836020610cb7565b604051602001610c919291906110d0565b60408051601f198184030181529082905262461bcd60e51b825261048191600401610ea9565b60606000610cc6836002610ffe565b610cd190600261101d565b67ffffffffffffffff811115610ce957610ce9611145565b6040519080825280601f01601f191660200182016040528015610d13576020820181803683370190505b509050600360fc1b81600081518110610d2e57610d2e61115b565b60200101906001600160f81b031916908160001a905350600f60fb1b81600181518110610d5d57610d5d61115b565b60200101906001600160f81b031916908160001a9053506000610d81846002610ffe565b610d8c90600161101d565b90505b6001811115610e04576f181899199a1a9b1b9c1cb0b131b232b360811b85600f1660108110610dc057610dc061115b565b1a60f81b828281518110610dd657610dd661115b565b60200101906001600160f81b031916908160001a90535060049490941c93610dfd81611171565b9050610d8f565b50831561054c5760405162461bcd60e51b815260206004820181905260248201527f537472696e67733a20686578206c656e67746820696e73756666696369656e746044820152606401610481565b600060208284031215610e6557600080fd5b81356001600160e01b03198116811461054c57600080fd5b60005b83811015610e98578181015183820152602001610e80565b838111156107725750506000910152565b6020815260008251806020840152610ec8816040850160208701610e7d565b601f01601f19169190910160400192915050565b80356001600160a01b0381168114610ef357600080fd5b919050565b60008060408385031215610f0b57600080fd5b610f1483610edc565b946020939093013593505050565b600080600060608486031215610f3757600080fd5b610f4084610edc565b9250610f4e60208501610edc565b9150604084013590509250925092565b600060208284031215610f7057600080fd5b5035919050565b60008060408385031215610f8a57600080fd5b82359150610f9a60208401610edc565b90509250929050565b600060208284031215610fb557600080fd5b61054c82610edc565b60008060408385031215610fd157600080fd5b610fda83610edc565b9150610f9a60208401610edc565b634e487b7160e01b600052601160045260246000fd5b600081600019048311821515161561101857611018610fe8565b500290565b6000821982111561103057611030610fe8565b500190565b60008083128015600160ff1b85018412161561105357611053610fe8565b6001600160ff1b038401831381161561106e5761106e610fe8565b50500390565b600080821280156001600160ff1b038490038513161561109657611096610fe8565b600160ff1b83900384128116156110af576110af610fe8565b50500190565b60006000198214156110c9576110c9610fe8565b5060010190565b7f416363657373436f6e74726f6c3a206163636f756e7420000000000000000000815260008351611108816017850160208801610e7d565b7001034b99036b4b9b9b4b733903937b6329607d1b6017918401918201528351611139816028840160208801610e7d565b01602801949350505050565b634e487b7160e01b600052604160045260246000fd5b634e487b7160e01b600052603260045260246000fd5b60008161118057611180610fe8565b50600019019056fea264697066735822122084dbc1690d5f9419d61787d8e830dbe9f8e8ccf9bee994fcacabdfb1dd11384c64736f6c63430008090033",
  "linkReferences": {},
  "deployedLinkReferences": {}
}